{"abi":[{"type":"function","name":"requestIntent","inputs":[{"name":"_action","type":"string","internalType":"string"}],"outputs":[],"stateMutability":"nonpayable"},{"type":"event","name":"IntentLogged","inputs":[{"name":"intentId","type":"bytes32","indexed":true,"internalType":"bytes32"},{"name":"user","type":"address","indexed":true,"internalType":"address"},{"name":"action","type":"string","indexed":false,"internalType":"string"}],"anonymous":false}],"bytecode":{"object":"0x6080604052348015600e575f5ffd5b506103db8061001c5f395ff3fe608060405234801561000f575f5ffd5b5060043610610029575f3560e01c8063fd1ab9511461002d575b5f5ffd5b61004760048036038101906100429190610215565b610049565b005b5f334260405160200161005d9291906102fa565b6040516020818303038152906040528051906020012090503373ffffffffffffffffffffffffffffffffffffffff16817f66663c32699eac0a6e3e45a0446716a36d7c05c4224b98c730f5a4249734f4cd846040516100bc9190610385565b60405180910390a35050565b5f604051905090565b5f5ffd5b5f5ffd5b5f5ffd5b5f5ffd5b5f601f19601f8301169050919050565b7f4e487b71000000000000000000000000000000000000000000000000000000005f52604160045260245ffd5b610127826100e1565b810181811067ffffffffffffffff82111715610146576101456100f1565b5b80604052505050565b5f6101586100c8565b9050610164828261011e565b919050565b5f67ffffffffffffffff821115610183576101826100f1565b5b61018c826100e1565b9050602081019050919050565b828183375f83830152505050565b5f6101b96101b484610169565b61014f565b9050828152602081018484840111156101d5576101d46100dd565b5b6101e0848285610199565b509392505050565b5f82601f8301126101fc576101fb6100d9565b5b813561020c8482602086016101a7565b91505092915050565b5f6020828403121561022a576102296100d1565b5b5f82013567ffffffffffffffff811115610247576102466100d5565b5b610253848285016101e8565b91505092915050565b5f73ffffffffffffffffffffffffffffffffffffffff82169050919050565b5f6102858261025c565b9050919050565b5f8160601b9050919050565b5f6102a28261028c565b9050919050565b5f6102b382610298565b9050919050565b6102cb6102c68261027b565b6102a9565b82525050565b5f819050919050565b5f819050919050565b6102f46102ef826102d1565b6102da565b82525050565b5f61030582856102ba565b60148201915061031582846102e3565b6020820191508190509392505050565b5f81519050919050565b5f82825260208201905092915050565b8281835e5f83830152505050565b5f61035782610325565b610361818561032f565b935061037181856020860161033f565b61037a816100e1565b840191505092915050565b5f6020820190508181035f83015261039d818461034d565b90509291505056fea2646970667358221220770413e90a328c01ea77bf96856aaeef0efa81ebbf81dd42e3928313cb219d2264736f6c63430008220033","linkReferences":{}},"methodIdentifiers":{"requestIntent(string)":"fd1ab951"},"id":0}